:020000041000EA
:1000000000B5324B212058609868022188439860DF
:10001000D860186158612E4B002199600221596106
:100020000121F02299502B49196001219960352056
:1000300000F044F80222904214D00621196600F024
:1000400034F8196E01211966002018661A6600F04E
:100050002CF8196E196E196E052000F02FF8012189
:100060000842F9D1002199601B49196000215960AB
:100070001A491B48016001219960EB211966A021F2
:10008000196600F012F800219960164914480160C1
:100090000121996001BC002800D000471248134993
:1000A000086003C880F30888084703B5996A0420EC
:1000B0000142FBD001200142F8D103BD02B5186610
:1000C0001866FFF7F2FF186E186E02BD00000240BE
:1000D000000000180000070000035F00212200005C
:1000E000F4000018222000A00001001008ED00E03C
:1000F00000000000000000000000000074B24E7A12
:1001000000200420F7010010CB010010CD010010E9
:10011000C9010010C9010010C9010010C901001077
:10012000C9010010C9010010C9010010CF01001061
:10013000C9010010C9010010D1010010D301001045
:10014000C1010010C1010010C1010010C101001067
:10015000C1010010C1010010C1010010C101001057
:10016000C1010010C1010010C1010010C101001047
:10017000C1010010C1010010C1010010C101001037
:10018000C1010010C1010010C1010010C101001027
:10019000C1010010C1010010C1010010C101001017
:1001A000C1010010C1010010C1010010C101001007
:1001B000C1010010C1010010C1010010C1010010F7
:1001C000EFF30580103800BE00BE00BE00BE00BECA
:1001D00000BE00BEF2EB8871202300104023001007
:1001E0003802001090A31AE700201E49086006C8D4
:1001F00081F3088810471C480068002801D00020BF
:10020000F3E70DA40ECC002902D000F012F8F9E7B4
:100210001649174A002000E001C19142FCD115495E
:100220008847154988471549884700BEFDE701C939
:1002300001C29A42FBD3704740230010C000002047
:1002400048020020C8240010000004200000042000
:10025000C82400100010042000100420000000003A
:100260007047000008ED00E0000000D048020020C8
:10027000180600209D1C001001080010951C00109D
:10028000F0B5DE4657464E4645460F240823E0B5F6
:1002900085B06C4499462370962600230027FE4DB6
:1002A0009846B6002200009327210133280001F070
:1002B00039FF3000390001F023F80C239B462370EE
:1002C00043462200009327210133280001F02AFF32
:1002D0003000390001F014F84B46237043462200E9
:1002E000009327210133280001F01CFF3000390062
:1002F00001F006F838239A46237043462200009303
:1003000027210133280001F00DFF3000390000F0F3
:10031000F7FF42463C2327212370280000923B3BF5
:10032000220001F0FFFE3000390000F0E9FF5246E4
:10033000227042460123009227212200280001F06A
:10034000F1FE3000390000F0DBFF4A4622704246E1
:100350000123009227212200280001F0E3FE300053
:10036000390000F0CDFF5A46227042460123009228
:1003700027212200280001F0D5FE3000390000F0CE
:10038000BFFF4A46227042460123009227212200E5
:10039000280001F0C7FE3000390000F0B1FF5246DE
:1003A000227042460123009227212200280001F0FA
:1003B000B9FE3000390000F0A3FF42463C2327215C
:1003C0002370280000923B3B220001F0ABFE30007E
:1003D000390000F095FF52462270424601230092F8
:1003E00027212200280001F09DFE3000390000F096
:1003F00087FF4A46227042460123009227212200AD
:10040000280001F08FFE3000390000F079FF5A46D5
:10041000227042460123009227212200280001F089
:1004200081FE3000390000F06BFF4A4622704246E0
:100430000123009227212200280001F073FE3000E2
:10044000390000F05DFF52462270424601230092BF
:1004500027212200280001F065FE3000390000F05D
:100460004FFF3C2323704346220000932721013392
:10047000280001F057FE3000390000F041FF5346DC
:10048000237043462200009327210133280001F006
:1004900049FE3000390000F033FF4B4623704346DD
:1004A0002200009327210133280001F03BFE300099
:1004B000390000F025FF5B4623704346220000937D
:1004C00027210133280001F02DFE3000390000F013
:1004D00017FF4B4623704346220000932721013328
:1004E000280001F01FFE3000390000F009FF28232A
:1004F0009A462370434622000093272101332800A7
:1005000001F010FE3000390000F0FAFE42462C23C4
:1005100027212370280000922B3B220001F002FECD
:100520003000390000F0ECFE5246227042460123B2
:10053000009227212200280001F0F4FD300039004C
:1005400000F0DEFE4A462270424601230092272137
:100550002200280001F0E6FD3000390000F0D0FE56
:100560005A46227042460123009227212200280089
:1005700001F0D8FD3000390000F0C2FE4A4622707A
:1005800042460123009227212200280001F0CAFDE3
:100590003000390000F0B4FE414668220123227089
:1005A000280022000091273101F0BCFD3000390005
:1005B00000F0A6FE41466C23220023702800009123
:1005C0006B3B273101F0AEFD3000390000F098FEA2
:1005D000682222704246012300922721220028002F
:1005E00001F0A0FD3000390000F08AFE5246227072
:1005F00042460123009227212200280001F092FDAB
:100600003000390000F07CFE2C232370434622008A
:10061000009327210133280001F084FD30003900C8
:1006200000F06EFE534623704346220000932721BC
:100630000133280001F076FD3000390000F060FE43
:10064000882323709A4643462200009327210133D2
:10065000280001F067FD3000390000F051FE8C23C6
:10066000237043462200009327210133280001F024
:1006700059FD3000390000F043FE534623704346D5
:100680002200009327210133280001F04BFD3000A8
:10069000390000F035FE01E0380200204B4623709F
:1006A00043462200009327210133280001F03AFD40
:1006B0003000390000F024FE5B46237043462200E0
:1006C000009327210133280001F02CFD3000390070
:1006D00000F016FE4B46237043462200009327216C
:1006E0000133280001F01EFD3000390000F008FE43
:1006F000C82323709A4643462200009327210133E2
:10070000280001F00FFD3000390000F0F9FDCC2386
:10071000237043462200009327210133280001F073
:1007200001FD3000390000F0EBFD534623704346D5
:100730002200009327210133280001F0F3FC300050
:10074000390000F0DDFD4B46237043462200009344
:1007500027210133280001F0E5FC3000390000F0CA
:10076000CFFD5B46237043462200009327210133CF
:10077000280001F0D7FC3000390000F0C1FD4B46E5
:10078000237043462200009327210133280001F003
:10079000C9FC3000390000F0B3FD182323709946DE
:1007A00043462200009327210133280001F0BAFCC0
:1007B0003000390000F0A4FD1C23237043462200C2
:1007C000009327210133280001F0ACFC30003900F0
:1007D00000F096FD4B4623704346220000932721EC
:1007E0000133280001F09EFC3000390000F088FD44
:1007F00005B0F0BCBB46B246A946A046F0BDC04617
:10080000F0B5DE46574645464E46E0B5B84F8DB08A
:10081000B849380001F05CFC0321042000F06EF9B7
:100820000321052000F06AF900220121042000F0D4
:100830007FF900220121052000F07AF9FFF720FD61
:10084000AD4B0F25984608AB9C4643460026BA465A
:100850006544099300230C20D346099F07933B6806
:10086000882498460023069708975F464008241A74
:10087000049323000F220821082093432401DBB2B4
:1008800064B219432043C9B2C0B283462A0029701A
:1008900003930591012327213800009601F042FCC3
:1008A00096200021800000F02BFD0C2081464A4656
:1008B000039B272113432B702A0001233800009645
:1008C00001F030FC96200021800000F019FD059910
:1008D00001232A00297038002721009601F022FC0C
:1008E00096200021800000F00BFD5B462A002B7053
:1008F000272101233800009601F014FC96200021E6
:10090000800000F0FDFC4B461C432A0001232721F8
:100910002C703800009601F005FC96200021800024
:1009200000F0EEFC5B465DE001230F229C462300B5
:1009300093439A46092352461343DBB2994609234F
:100940004A46240164B22343DBB22A7027212A00DD
:100950000393380001230096E04401F0E3FB962066
:100960000021800000F0CCFC0D22934652465946EF
:100970000A4301232A7027212A003800009601F03B
:10098000D1FB96200021800000F0BAFC4A460123EA
:100990002A7027212A003800009601F0C3FB962018
:1009A0000021800000F0ACFC039B2A002B70272163
:1009B00001233800009601F0B5FB9620002180004D
:1009C00000F09EFC5A46144301232A0027212C7074
:1009D0003800009601F0A6FB96200021800000F070
:1009E0008FFC039B2B702A000123272138000096DF
:1009F00001F098FB96200021800000F081FC434626
:100A00001C78002C90D1049B012B0DD0069B5C68B8
:100A100004332000069301F08FFBA0460123C82475
:100A20004008241A049324E7FA20BB460824C00097
:100A3000089F00F079FC01232A002C7027215846DA
:100A4000009601F06FFB96200021800000F058FC1A
:100A50000C232A002B7027210B3B5846009601F0EF
:100A600061FB96200021800000F04AFC01232A004F
:100A70002C7027215846009601F054FB9620002147
:100A80008000103400F03CFC01232A0027212C7048
:100A90005846009601F046FB96200021800000F0A9
:100AA0002FFC1C232A002B7027211B3B5846009645
:100AB00001F038FB96200021800000F021FC01238A
:100AC0002A0027212C705846009601F02BFB962017
:100AD0000021800000F014FC079B022B06D0B868B0
:100AE00001F02AFB022308370793B8E6DA46B1E69D
:100AF00038020020A0860100B8220010094A8300B5
:100B00009A1810B514684022544080322240064C96
:100B1000C000A44663441A60044B9C466044416094
:100B200010BDC04604C0014004D001400040014057
:100B3000074B8000C3181B68C90092000A435A4043
:100B40000C231340034A9446604403607047C04638
:100B500004C0014004D001400FB400B5084883B080
:100B600001F0D0F9049B002B07D005A918000191D2
:100B700001F074F8034801F0C5F9012001F086F88E
:100B8000382200101822001070B5EFF3108C72B6E6
:100B90000D4D2B68002BFCD0BFF35F8F0724CB08D3
:100BA000C618C05C01230C40A3401C000440034253
:100BB00007D118433070BFF35F8F2C608CF310881F
:100BC00070BD1000FFF7C8FF2C0100D0044A107858
:100BD000431CDBB2172B00D9102313707047C0469B
:100BE000E80100200021044B044ABFF35F8F02C3D9
:100BF0009342FAD17047C046000100D0800100D076
:100C0000054B064A1360064A136053609360D36035
:100C100013615361936170478080808000E400E03D
:100C200004E400E01F2318401E3B8340002905D048
:100C3000C021044A49005350136070478022014983
:100C40008B50FAE700E100E010B5EFF3108C72B6BC
:100C50000F4A1368002BFCD0BFF35F8F0D4B103091
:100C60009B6880001B580C4A934201D099420CD1DA
:100C7000084B9B681950BFF35F8FBFF35F8F002253
:100C8000034B1A608CF3108810BD00F0B7FDC0460E
:100C9000240100D000ED00E0C1010010024B9C4691
:100CA00061448900016070474000003470B5114C08
:100CB000114DAC420FD2FF262368002B0CD0FFF75A
:100CC00085FF01002000FFF7E9FFA680BFF35F8FDB
:100CD0000834AC42F0D370BDFFF778FF010020006C
:100CE000FFF7DCFF2671BFF35F8F0834AC42E3D31C
:100CF000F1E7C04640020020480200200A4B196874
:100D0000EFF3108072B60A68002AFCD0BFF35F8F41
:100D10001B68BFF35F8F00221A6080F3108840BF0A
:100D2000002000217047C04614060020F0B5DE46C2
:100D300057464E464546E0B583B0EFF305820323A0
:100D40001340B54A990052580091904601229A40AA
:100D50009346B24B1A60B24B01935B46B148436372
:100D6000434608229B5E9946002B3ADA43469B880D
:100D70001BB2002B00DB9DE043469B79002B00D08B
:100D8000E1E0434608241C5F002C20DB43465A69FF
:100D900063001B19DB00D3189D68DC686B1C00D155
:100DA00003E1A048009984466144826A0B69AE1A47
:100DB0009B1A9E4213D35A46036A1A420FD099488F
:100DC00000F064FB8C4202DCC7D18542C5D940BF2C
:100DD00003B0F0BCBB46B246A946A046F0BD0D61CB
:100DE000EDE7424652695B0092464B44DB009A4471
:100DF00053469E68DF6800F049FB8F42B6DC00D1A5
:100E0000F8E0002F00DAD9E05246534654691B69D6
:100E1000019A934200D1CCE0414652460820085E38
:100E20005288000421001043984704000D0023005D
:100E30002B4300D1C2E0002D00DBDFE030003900A1
:100E4000001BA94153469860D96000229A5E002A8F
:100E500000DA8BE743465D6953009C18E4002C19C7
:100E6000A768E4688C4200DD80E702D1874200D9A0
:100E70007CE74646328108360DE08C4200D1C6E060
:100E80001E000023F25E002A0ADB53009C18E400D7
:100E90002C19A768E4689B18DB00EB188C42ECDD8A
:100EA00053461A804B46338043469B881BB2002B27
:100EB00000DA61E743461A69EFF3108172B61368EE
:100EC000002BFCD0BFF35F8F43469E880123424630
:100ED0005B42938036B21369BFF35F8F00221A60C2
:100EE00081F31088002E00DA46E743465D69083337
:100EF00042469C467700BF19FF00EF19BB68604669
:100F000098460823D15E9246FC68002907DA0EE075
:100F1000A24246D018000023C15E002906DB4B0028
:100F20005B18DB00EB18DA68A242F1DD524606805E
:100F30000023FE5E3980002EDCDA904643469B7922
:100F4000002B00D11DE700234246937143464646DD
:100F50000821595E08364B1C00D138E747468946C0
:100F6000556902E006004B1C18D04B005B18DB00F3
:100F7000E8180A008C46E95E43881BB2002BF1DAC0
:100F800001235B42DC178360C4604A4503D0318093
:100F90003B8903803A81E1464B1CE6D1B8464C467A
:100FA000F2E69A684245B5D9C0E7631C00D0F8E67E
:100FB00005E7200023699847002825D1534642467B
:100FC0001B8813811269EFF3108372B61168002930
:100FD000FCD0BFF35F8F4246514652880A8042469A
:100FE000494651801269BFF35F8F0021116083F37E
:100FF0001088BBE6864200D803E7B7E6094800F050
:1010000045FA001969411DE7656824680FE78742C2
:1010100000D835E744E7C046000600203C70054094
:101020002D0D00100040054070B52E4C2569002D97
:1010300004D00A212C48FFF731FE70BD2B4E03214E
:10104000300000F019FAE660FFF7C0FD284B0322DC
:101050009C46D02322701B061B6801216370254B20
:101060006044A3600F2380002061022063806369D5
:101070004942A18019800231198647311D83585297
:1010800018315A5275325C399952183201319952DD
:1010900018320131995218320131995208351832FB
:1010A0009D52023118329952183201319952183238
:1010B0000131995218320131995218320131995245
:1010C0001832013199520C4B0C49DC600130356209
:1010D000FFF7BAFD01210320FFF7A4FD084B1D60B7
:1010E000A7E7C046F8010020140600200040054094
:1010F00040000034FFFF1000000600202D0D0010FE
:101100003860054070B501000469EFF3108C72B6C9
:1011100020680028FCD0BFF35F8F02200D5E4C6971
:1011200068004019C0002418002D37DB2088488053
:101130000869BFF35F8F002606608CF31088E360B8
:1011400063880498013320615B0405985B0CA260FE
:1011500060611A1C002B1FD093B2280462801843D0
:101160000A69EFF3108C72B61368002BFCD0BFF342
:101170005F8F8B8823808D800B69BFF35F8F002288
:101180001A608CF310880B7801329A40CB680849BA
:101190008C4663441A6070BD0122DDE70B69BFF322
:1011A0005F8F00221A608CF3108801204042F2E722
:1011B0003C20000010B543890A1493421ADD530005
:1011C0009B184269DB00D3180469EFF3108C72B6E8
:1011D0002268002AFCD0BFF35F8F5A88090494B2BA
:1011E000090C8A4208D00369BFF35F8F00221A609E
:1011F0008CF31088002010BD8022120214435C8002
:10120000012302698371BFF35F8F002111608CF3AA
:101210001088044902788C469340C26801206244D9
:101220001360E8E73C200000F0B504000D0006263E
:101230007642F717C64636196F4100B582B08F4225
:1012400014D811D000F02AF932003B00121A8B4159
:10125000002B17DC002B47D02000290000F028F9D4
:1012600002B080BCB846F0BD8642EBD90022002314
:1012700016001F0000F012F932003B00121A8B41D9
:10128000002BE7DD00F00AF932003B00121A8B4117
:10129000002B0ADB00230193154B32000093154805
:1012A0003B00FFF72FFF0028D6DB00239C46B0460B
:1012B000114A124E736A9F4204D8B16A8845CBD94D
:1012C0009F42C9D11168EFF3108072B60B68002BF2
:1012D000FCD0BFF35F8F1368BFF35F8F6146196067
:1012E00080F3108820BFE5E7002AB5D0CAE7C046E2
:1012F000FD0C0010F80100201406002000400540FD
:1013000070B504000D0000F0C9F880230019694190
:101310001B06994202D3012002494042FFF784FF95
:1013200070BDC046FFFFFF7F70B5060000F0B6F845
:10133000FA2204000D00002330000021920000F08A
:1013400015FC8023001969411B06994202D3012034
:1013500002494042FFF768FF70BDC046FFFFFF7FB4
:10136000F0B5D6464F464646C0B504000D0082B0E3
:10137000EFF305830F00002B31D13B4B98461B68E0
:10138000834227D0394B9946DB689A464B465046F4
:101390001E7800F07BF80B00514602000436B600C0
:1013A00071582000891A8C4629000026801A99411C
:1013B0008E4224DC21D020BF2D4A536ABB422AD35F
:1013C000926A0120A24213D302B0E0BCBA46B146F1
:1013D000A846F0BD43465B688B42D3D1EBE7244976
:1013E00000204B6AAB42EFD38A6A0130A242EBD2B3
:1013F0005B1B5A1E9341D8B2E6E78445DBD900F067
:101400004DF822002B00121A8B41002B05DA184AE6
:10141000536ABB42D4D20020D6E700230193154B78
:101420002200009348462B00FFF76CFE011EEEDD04
:1014300043461C605D600E4B5A6ABA4211D39B6AE8
:10144000A3420CD34846FFF7B5FE094A0020536A71
:10145000BB42B9D3926A0130A242B5D2C8E7BA42C0
:10146000F0D120BFEEE7C046F0010020F8010020D7
:1014700000400540FD0C001010B5024A0248FFF77D
:1014800083FB10BD48220010C80500200300416AFC
:101490000A00986A596A8A42FAD17047034B596A1E
:1014A0000A00986A596A9142FAD170470040054093
:1014B000064A536A9942FCD807D1044B02E05A6AA3
:1014C000914202D19A6A8242F9D3704700400540A6
:1014D000F8B5DE464E4657464546E0B58B46050014
:1014E0000A991800160000F0B3FA0A9B6C001F025C
:1014F000324B64199C46A4006444636881469F4251
:1015000000D967602B1FDBB29846012B30D9C0236E
:1015100080229B01E31812011A60294BAD00595932
:101520009A4600291BD17301E026226853401E40D1
:10153000802342465B01E3181E60012A30D98023D4
:1015400080229B01E31812011A6053464A466760E5
:101550005A51F0BCBB46B246A946A046F8BD5869F0
:1015600000F076FA013043001B18033BFDD2DAE7A6
:101570005B46012BCBD1C02303229B01E3181A60E9
:10158000023AA3681A42FCD07301E0262268AD003B
:1015900053401E4080230A4A5B019246E3181E60B6
:1015A0005A462168514003220A401A6001225B46D4
:1015B0009A40A3681A42FCD0C1E7C04600800040B0
:1015C000CC050020F0B546464F46D646C0B51F00B4
:1015D000344B44009C462418A40064446368884645
:1015E0001600FF2B02D880235B006360031FDBB271
:1015F0009A46012B30D9C02380229B01E3181201A7
:101600001A60294B85005959994600291BD173014D
:10161000E026226853401E40802352465B01E318B7
:101620001E60012A30D9802380229B01E318120119
:101630001A6080235B0063604B465F51E0BCBA4692
:10164000B146A846F0BD586900F002FA01304300E7
:101650001B18033BFDD2DAE74346012BCBD1C02355
:1016600003229B01E3181A60023AA3681A42FCD0D5
:101670007301E0262268850053401E4080230A4AF9
:101680005B019146E3181E604246216851400322E7
:101690000A401A60012342469340A2681342FCD0DC
:1016A000C1E7C04600800040CC050020014B80000F
:1016B000C0587047CC050020F8B5040021481E0032
:1016C00017000D0000F0C4F90100380000F0C0F967
:1016D000069B36041B031E432368002B20DB1A4B9A
:1016E0001A49E3185A1E93418022920194465B42A4
:1016F0001B0B174A1B0363441360164A13601F0039
:101700000A689743FBD1144B2560E2182123A0609F
:1017100013602368002BFCDA0823E6601360F8BD31
:101720003F2322681340AB42D9D1A3681B051B0D90
:101730008342D4D1EE22E368D2021340B342CED129
:10174000EDE7C046001BB7000040FDBF08C00040E9
:1017500000E0004000F00040043000008023024A16
:101760009B000B43D362704700800540142310B5E3
:101770000100188804331B88984710BD162310B544
:101780000100188802331B88984710BDF8B54746FA
:10179000CE4680B50F1E19D0142399460433040099
:1017A0000025012698464B461888434621681B8829
:1017B000984701C4431E9841013540420640AF425C
:1017C000F1D13000C0BCB946B046F8BD0126F8E7FB
:1017D000AA23064A1B0113608D235B00D3600449D2
:1017E000044B19605368002BFCDA7047004002403C
:1017F00000B0FA00006002407047C04610B50148D2
:10180000FFF7AAF96C22001070B5074D074EB542DC
:1018100009D20024013E761BB60808CD9847230064
:101820000134B342F9D170BDC82100100422001068
:10183000054B064A06491A60064A074B1A60100013
:101840000B689843FBD1704700E00040BFCDFBFE22
:1018500008C00040FE7F3C0000F00040044BDB6C01
:10186000002B03D18022034BD2021A607047C0467E
:10187000000011504C201150044A054B1A60054AD3
:101880001368DB018033FBD17047C046FFFFFF01C7
:1018900000F0004008C000404022034B9A675A679E
:1018A0001A67DA667047C04600F0014010B5FFF7CE
:1018B00099F910BDF8B52749274C284D641AA4089A
:1018C0002200302C00D930222800920000F0B8F914
:1018D0002F2C3BD830202F21A700EB195B07204A83
:1018E000001BDB0F091B052916D92600002B01D090
:1018F000EA51661CC01AE3189B004108EB18C900A6
:10190000C9181A605A6008338B42FAD10123034286
:101910001CD098438419A700EA51631C2F2C15D0C2
:101920009B00EA50A31C2E2C10D09B00EA50E31C15
:101930002D2C0BD09B00EA50231D2C2C06D09B0095
:10194000EA50631D2B2C01D09B00EA50054B9D6093
:10195000F8BDC04600010010C001001000000020CA
:10196000C101001000ED00E0002310B5294C82B049
:10197000A367FFF72DFF0122274B1A60636C012B31
:10198000FCD10322254B1A60224A936B012BFCD118
:10199000013300930121224A22480433FFF78CFED1
:1019A000052301210093204A2048FFF785FE0022ED
:1019B000022104201E4BFFF705FE00220121052015
:1019C0001C4BFFF7FFFD0022002107201A4BFFF7F9
:1019D000F9FD002200210820174BFFF7F3FD8023BB
:1019E000DB000093002200210920134BFFF770FD5C
:1019F0000022104B00210620FFF7E4FD0420FFF732
:101A000055FE0E4900F024F801000020FFF7A6FE65
:101A100002B010BD008000403CB0004030B000403B
:101A2000002F685900800240008C864700C00240A9
:101A3000001BB70040597307006CDC0240420F00E6
:101A400001480421014B1847100200208D17001097
:101A5000114A936F9B0813D210665166002905D076
:101A6000FFE7FFE7FFE7516F106F704704B50028ED
:101A700001D00020C04300F097FB002104BDC04608
:101A8000F0B5146E556E576F166FFFF7E5FF1466CD
:101A9000556657671667F0BD000000D0132370B578
:101AA0001D78012D19D014DD1F48FFF767FE0600D1
:101AB0001E48FFF763FE1E4C80223100200000F01C
:101AC000BFF8022D2DD01B48FFF750FE1A4B1860AF
:101AD00070BD1A4B164CA364F5E7184B144C2360E9
:101AE0006360A360E36023616361A361E3612362D8
:101AF0006362A362E36223636363A363E3632364B8
:101B00006364A364E36423656365A365E365236697
:101B10006366A366E36623676367A367E367A364FB
:101B2000D1E7064BA364CEE75344000053460000C0
:101B3000C80300204C33000010060020411B001099
:101B400007B5604601880A0A0230DF2AFAD1C9B215
:101B5000820804D3028840880004104300E0006833
:101B6000014A5050039007BDC8030020514343432E
:101B7000C9188C46110C83B24B4310B4040C61435A
:101B800092B280B2504362431C041B0C001910BC7B
:101B900059411304120CC0185141614470470000B0
:101BA000132310B512481C78FFF7E8FD0100012C43
:101BB0000AD003DD80220F4800F042F80E48FFF7FC
:101BC000D5FD0E4B186010BD0A4C5422200000F0C9
:101BD00037F80B4B6365A365E36523666366A3660D
:101BE000E36623676367A367E3672362E361E5E76F
:101BF00053460000C80400204C33000010060020AB
:101C0000051C001007B5604601880A0A0230DF2A69
:101C1000FAD1C9B2820804D3028840880004104374
:101C200000E00068014A5050039007BDC80400203E
:101C300001480421014B1847200200208D17001095
:101C4000014B5B68184700002002002010B50028F7
:101C500000D110BD00F00AF9FBE7C04610B5094AF3
:101C60000300146884B0002C08D0012200910648BB
:101C7000524203A9A047012004B010BD00F042F970
:101C80000020F9E7FC0500204D1C001000BEFDE718
:101C90007047C04610B5FFF7F9FFC04670B5FFF7B3
:101CA000B3FD074D074EB54209D20024013E761B15
:101CB000B60808CD984723000134B342F9D170BD6E
:101CC0000422001004220010030010B508001100C7
:101CD0001B68984710BDC046F0B5C64600B5437DA9
:101CE00007000D001600002B38D0002A2EDD002141
:101CF0006A1E90466A5C037D4C1C00200A2A0CD0A8
:101D0000A64216D043461B5D21000D3B5A4253416B
:101D10006A5CDBB24C1C0A2AF2D1002BF0D188425B
:101D200017DB022110483B689847A64207D02000E5
:101D3000E8E7864203DD311A3B6828189847AD1959
:101D4000013D2B780D3B5A4253413B7580BCB84650
:101D5000F0BD091A3B6828189847E2E703681100AC
:101D600028009847F2E7C0461C230010F0B5DE4675
:101D700057464E464546E0B585B017001C000600A4
:101D80000D00FFF78BFB0023314A12184B418021D5
:101D900009068B4202D301222E4B52422E490800E3
:101DA0008A4600F0F9F901906B1C03D1300000F075
:101DB000C3F90500002C26D0284B9846284B1C68F8
:101DC000002C15D0002F21D1264F02E02469002CD1
:101DD0000ED02368002BF9D03B68002B01D09C4229
:101DE000F4D120002A003100C0472469002CF0D132
:101DF000019B002B28D1280005B0F0BCBB46B246A1
:101E0000A946A046F0BD184B9846D7E7154B994612
:101E100002ABDF1D0A239B4602E02469002CE7D0B9
:101E20002368002BF9D04B461B68002B01D0A3423E
:101E3000F3D12A0031002000C0475B46012239005F
:101E400020003B70C047E8E7504600F0B5F9D2E704
:101E500040420F00FFFFFF7F40020020D91C00100E
:101E6000F4050020F8050020C91C0010F0B5CE468E
:101E7000474680B583B06B460600DD1D2870FFF72E
:101E80000DFB00231A4A12184B41802109068B4290
:101E900002D30122174B524217490800884600F02E
:101EA0007BF9164B81461C68002C14D0144F02E0BD
:101EB0002469002C0FD02368002BF9D03B68002B3D
:101EC00001D09C42F4D1200001222900FFF704FF39
:101ED0002469002CEFD14B46002B05D1300003B014
:101EE000C0BCB946B046F0BD404600F065F9F5E724
:101EF00040420F00FFFFFF7F40020020F40500205A
:101F0000F805002070B5040000F016F90123010067
:101F1000050001222000FFF729FF084B1C68002C58
:101F200006D06368002B05D098472469002CF8D1AF
:101F3000280070BD2469002CF3D1F9E7F4050020D6
:101F4000F0B557464E46DE4645468446E0B583B07A
:101F50001F000CAB18786346914600221B68019065
:101F6000DA6601325960DA66002F4FDD7A1E90463C
:101F70006246127901269202802493463A00464036
:101F8000760280253700002046461021A246904662
:101F9000AD00841B624254414A4664423C40009476
:101FA0005C46125C2243009C22431A615A6B114228
:101FB000FCD052469C58002C10D1B04221D00022B7
:101FC000013093468045E4D16346019A1A7103B00B
:101FD000F0BCBB46B246A946A046F0BD5A6D0122F0
:101FE00093465A6B2A42FCD01A6E5A46002AE6D013
:101FF000002C03D0E30701D42407E5D4012040429C
:10200000E2E7019A002ADAD19346EAE70020DBE70B
:10201000F8B5DE4657464E4645468346E0B50520B0
:102020000C00FFF743FB0600600821008019FFF752
:102030000FFD430098468044070005214046FFF706
:1020400007FD3B1A9A461E4B8146700080199C4240
:1020500031D81C49FFF7FCFC451C5B461C6800237B
:10206000E366226804335A4002331340802252014F
:10207000A21813605346E3614B4623624346012096
:102080004F2B03D950214046FFF7E2FCA023E0503C
:10209000E36F39005D400C4B2D042D0CE3181D60DF
:1020A00001233000E366FFF7D3FCF0BCBB46B24629
:1020B000A946A046F8BD0549FFF7CAFC451CCCE778
:1020C0003F420F00809698007C10000040787D0110
:1020D000104A70B5821A531E9A41072352429A43FE
:1020E0000D4B10321A600D4B0D4C1A601500236811
:1020F0009D432B1EFAD166240268FF340571D56614
:102100001460633C8833FF3CD5639563D450FFF77C
:102110007FFF70BD3002002000E0004000F0004072
:1021200008C0004010B582B004AC24780094FFF7DA
:1021300007FF02B010BDC04610B583070AD00300E8
:10214000032102E001330B4205D01A78002AF9D1AD
:10215000181A10BD030019680C4A0D4C8A188A43DE
:1021600022420FD15968094A04338A188A4322420D
:1021700008D15968054A04338A188A432242F1D0AB
:1021800000E001331A78002AFBD1E1E7FFFEFEFEF2
:10219000808080800000000001B40248844601BCB9
:1021A000604700BF7501002001B40248844601BCAD
:1021B000604700BFD101002001B40248844601BC41
:1021C000604700BFA9010020311800105D18001001
:1021D000411A0010311C00109D1A0010A11B0010A4
:1021E000691900107918001099180010AD18001026
:1021F000AD0C0010B518001029100010F9170010D0
:04220000010C0010BD
:10220400080052501A520A0048656C6C6F2C20501A
:1022140069636F210000000057696E6472610000F9
:102224005765656B360000004C434420776F726B32
:10223400732100000A2A2A2A2050414E4943202AA9
:102244002A2A0A00486172647761726520616C61B0
:10225400726D20256420616C726561647920636C01
:1022640061696D6564000000486172642061737384
:102274006572740052656C6561736500626F6F749A
:10228400325F77323571303830000000322E332E11
:10229400300000007069636F0000000068656C6CBA
:1022A4006F5F6C63640000004A756C203132203229
:1022B400303236000C2200101C22001024220010A0
:1022C4002C22001006005250D3F0754278220010E0
:1022D40006005250E182887F80220010060052508E
:1022E400ABB360539022001006005250BBFF3CB6C3
:1022F4009822001006005250861C0302A0220010EF
:10230400060052505422A29DAC22001005005250E7
:0C231400DE65F468C82400100D0A00000B
:1023200004220010C8220010D4220010E022001065
:10233000EC220010F82200100423001010230010DB
:1023400003000068EFF3108C72B60268002AFCD01C
:10235000BFF35F8F04229A56002A04DB002900D0C5
:102360000A60002004E0D0220120120612681A71CF
:102370001B68BFF35F8F00221A608CF310887047D0
:10238000F0B54F46D6464646C0B51F00D0231B06C3
:102390001B6804009A460023904699460CE0226888
:1023A000BFF35F8F4946116083F3108840463900C0
:1023B00000F052F800281AD12668EFF3108372B6A5
:1023C0003568002DFCD0BFF35F8F25797F2DE6D9CE
:1023D000524622712268BFF35F8F0021116083F3A0
:1023E00010880120E0BCBA46B146A846F0BD0020E6
:1023F000F8E7C04670B582B001A9040016001D00C0
:10240000FFF79EFF002807D1D0231B0601991B78F8
:1024100049B25BB2994201D102B070BD32002B00CB
:102420002000FFF7ADFFF7E70268EFF3108172B607
:102430001368002BFCD0BFF35F8FFF230371036889
:10244000BFF35F8F00221A6081F3108840BF70478E
:102450007047C0460000000001B40248844601BC39
:10246000604700BF61130010100000000000000072
:10247000FFFFFFFFFFFFFF7F0000000000000000E4
:1024800000000000000000000000000048020020E2
:10249000503300004C33000054330000523300002E
:1024A0004D5300004D4300005334000043340000FE
:1024B00000800440000000000040044000000000D4
:0824C000000000000000000014
:04000005100001E9FD
:00000001FF
