:020000041000EA
:1000000000B5324B212058609868022188439860DF
:10001000D860186158612E4B002199600221596106
:100020000121F02299502B49196001219960352056
:1000300000F044F80222904214D00621196600F024
:1000400034F8196E01211966002018661A6600F04E
:100050002CF8196E196E196E052000F02FF8012189
:100060000842F9D1002199601B49196000215960AB
:100070001A491B48016001219960EB211966A021F2
:10008000196600F012F800219960164914480160C1
:100090000121996001BC002800D000471248134993
:1000A000086003C880F30888084703B5996A0420EC
:1000B0000142FBD001200142F8D103BD02B5186610
:1000C0001866FFF7F2FF186E186E02BD00000240BE
:1000D000000000180000070000035F00212200005C
:1000E000F4000018222000A00001001008ED00E03C
:1000F00000000000000000000000000074B24E7A12
:1001000000200420F7010010CB010010CD010010E9
:10011000C9010010C9010010C9010010C901001077
:10012000C9010010C9010010C9010010CF01001061
:10013000C9010010C9010010D1010010D301001045
:10014000C1010010C1010010C1010010C101001067
:10015000C1010010C1010010C1010010C101001057
:10016000C1010010C1010010C1010010C101001047
:10017000C1010010C1010010C1010010C101001037
:10018000C1010010C1010010C1010010C101001027
:10019000C1010010C1010010C1010010C101001017
:1001A000C1010010C1010010C1010010C101001007
:1001B000C1010010C1010010C1010010C1010010F7
:1001C000EFF30580103800BE00BE00BE00BE00BECA
:1001D00000BE00BEF2EB88711C1F0010381F00101B
:1001E0003802001090A31AE700201E49086006C8D4
:1001F00081F3088810471C480068002801D00020BF
:10020000F3E70DA40ECC002902D000F012F8F9E7B4
:100210001649174A002000E001C19142FCD115495E
:100220008847154988471549884700BEFDE701C939
:1002300001C29A42FBD37047381F0010C000002053
:10024000880200200021001000000420000004208B
:100250000021001000100420001004200000000005
:100260007047000008ED00E0000000D08802002088
:1002700070060020D51A0010A5020010CD1A00103B
:10028000074A136801331360D02380221B06596884
:100290001202114201D15A6170479A61FCE7C046CF
:1002A0003C06002010B5102000F0E8F90F2000F007
:1002B000E5F9D02380221B0652029A6280221202A4
:1002C0005A6200210122102000F044F90122082185
:1002D0001020024B00F052F9FEE7C04681020010E8
:1002E000D0231B061A68974B9100F0B55B58DE4689
:1002F000574645464E469B4653009B18924AE0B5EA
:1003000094461B01634483B001935B4688460027F3
:10031000002B38D08D4B0F269A46FB08019A0833E4
:100320009B009C5801233D0099460837002C21D0A2
:1003300031002140264217D0534642469A582B009E
:10034000EA40203BDB1713404A4613420CD10722F8
:1003500008002A40920090400200EB087C483C33A1
:100360009B001A502800D84724090135002C01D0E1
:10037000BD42DDD3202FD0D103B0F0BCBB46B24686
:10038000A946A046F0BD714B00209A4601230F22DA
:100390009B46C6083300019908339B005B58010057
:1003A0000830002B00D1B2E017001F40BC461A42B3
:1003B0000FD0444655460F002C59203FCC40FF1724
:1003C00027405C46274204D16446614F3C36B60064
:1003D000F4511E0900D19AE017003740324213D081
:1003E0004C1CA446554644462C5965460E00EC402C
:1003F0001F3EF61726405C46264205D1EE08544CB7
:100400003C363F01B60037511E0A00D17FE017008D
:100410003740324213D08C1CA446554644462C59D2
:1004200065460E00EC401E3EF61726405C4626420E
:1004300005D1EE08464C3C363F02B60037511E0B44
:1004400065D01700374032420DD0CC1CA44655462B
:1004500044462C5965460E00EC401D3EF6172640DA
:100460005C46264257D01E0C51D014003440A4469E
:1004700032420BD04446354E0F1D3659FE40B14630
:100480000E004C461C3EF60F26424BD01E0D3ED0B1
:1004900014003440A44632420BD044462B4E4F1D2C
:1004A0003659FE40B1460E004C461B3EF60F264222
:1004B00040D01E0E2BD014003440A446324212D03D
:1004C0004446224E8F1D3659FE40B1460E004C4622
:1004D0001A3EF60F264206D16446FE083C36270631
:1004E0001B4CB60037511B0FCF1D002B0FD04446BD
:1004F00055462E595C46FE401939C91731402142F4
:1005000005D1F908124E3C311B0789008B51202878
:1005100000D03EE730E7EE080D4C3C363F03B60016
:100520003751A0E76446FF083C37BE00084F24045B
:10053000F451ABE76446FE083C362705044CB60090
:100540003751B6E708060020004101405C06002054
:1005500000400140074B8000C3181B68C90092008F
:100560000A435A400C231340034A944660440360F4
:100570007047C04604C0014004D00140F0B5464673
:10058000C40888461D00030007204F46D646184081
:100590004346C0B58000D026834036069846316871
:1005A000A700002A1DD142462F4B3C34A400E25044
:1005B0002E4B4A009C46434652181201D2196244FF
:1005C000136034682A4BA40099461B59002B2CD089
:1005D000002D3FD04B461D51E0BCBA46B146A8465F
:1005E000F0BD234B99468B009A464B4652469B588A
:1005F000002B24D0002D32D04B4652469D50D023A4
:100600001B0619684246184B3C34A400E250194AB4
:100610004B00944642465B181B01DB1963440121E1
:100620000D201A6000F0B0F8D6E7002DD4D04B466C
:1006300000220D2010491D5100F0E2F8CCE7002DFA
:10064000E0D04B460C499D500D20002200F0D8F818
:100650003168D7E70D20084900F0BEF9BAE70D2050
:10066000054900F0B9F9C7E70040014000710140B9
:100670000806002000610140E10200100123D022A1
:100680008340120693629361094A83009A181168A5
:100690004022514080320A400649C0008C466344E3
:1006A0001A60054B9C460523604443607047C04672
:1006B00004C0014004D00140004001400FB400B527
:1006C000084883B001F03AFB049B002B07D005A932
:1006D0001800019101F0DEF9034801F02FFB012021
:1006E00001F0F0F9441E0010A81E001070B5EFF3E1
:1006F000108C72B60D4D2B68002BFCD0BFF35F8FB2
:100700000724CB08C618C05C01230C40A3401C0082
:100710000440034207D118433070BFF35F8F2C6051
:100720008CF3108870BD1000FFF7C8FF2C0100D0BB
:10073000044A1078431CDBB2172B00D91023137026
:100740007047C046E80100200021044B044ABFF373
:100750005F8F02C39342FAD17047C046000100D0B8
:10076000800100D0054B064A1360064A13605360AF
:100770009360D36013615361936170478080808080
:1007800000E400E004E400E01F2318401E3B834027
:10079000002905D0C021044A490053501360704716
:1007A000802201498B50FAE700E100E010B5EFF339
:1007B000108C72B60F4A1368002BFCD0BFF35F8F0A
:1007C0000D4B10309B6880001B580C4A934201D09F
:1007D00099420CD1084B9B681950BFF35F8FBFF350
:1007E0005F8F0022034B1A608CF3108810BD00F05D
:1007F0003BFFC046240100D000ED00E0C101001025
:10080000F0B557464E46DE464546E0B58A4685B0C9
:100810000600EFF3108972B663490B68002BFCD019
:10082000BFF35F8F0021614B59568C46002900DAD7
:10083000B7E049000D005E4C6544AD0067190291B8
:10084000B979103619705B4BB1009B6801915B5808
:10085000191B2F2935D8012118008843C6799642E3
:1008600000D875E09B46029B019E9846039507E0E1
:100870004D006D18AD006519EB7993424ED92800F3
:10088000062141560029F3DA45465B46019602955A
:10089000061D494D0396039E043FBF1B3F05474E6F
:1008A0007F0D3743664687808671029860448000DA
:1008B0002418E27152464248A5802060A171A260CE
:1008C00018E040498B4200D06BE03F4B3B496353FB
:1008D0003E4B0235043B65195B1B1B055B0D0B434F
:1008E0007B803B4BFA71BB80FF23BB715346BB60DF
:1008F00001233B432F4A019992685350BFF35F8F06
:10090000BFF35F8F0022284B1A6089F3108805B06F
:10091000F0BCBB46B246A946A046F0BD019646468D
:10092000029686885B467605B346061D039D0396B0
:100930005E463615B346061DB046C3445E460435D2
:100940006519751BE0262D056D0D36023543A2E7AE
:10095000204BFA719C46030066461B1B5B415E43BD
:10096000360DB446AE1CB046A0444646164B635303
:10097000164B0435043B9B1B1B05104E5B0D33438C
:100980007B806319C31A043B1B055B0D3343BB809B
:100990006346BB715346BB60094B03603B000B438E
:1009A000A8E700F061FEC046240100D06C060020DC
:1009B000EC01002000ED00E001BD000000E0FFFFC1
:1009C00001488047C101001000A1FFFF1C02002068
:1009D00001BDFFFFAAAA0000F0B5DE4657464E460D
:1009E0004546E0B583B0EFF3108C72B6634A1368E6
:1009F000002BFCD0BFF35F8F614B624C9A68030001
:100A000010339D005259A146A2423DD08A424ED099
:100A10005D4C161B2F2E37D80127BA4687405B4EF8
:100A2000B04636683E401F27B3465646384086409B
:100A30004746802001963E50BFF35F8FEFF305805D
:100A40008046002835D0834200D094E01000534601
:100A500098438668B14208D17BE07B00DB199B009C
:100A6000E3189E68B14236D018000627C757002FFA
:100A7000F3DAB14259D05B46002B27D0C021434B5B
:100A800001984900585018603D4B9B685A51BFF37C
:100A90005F8FBFF35F8F0022384B1A608CF3108892
:100AA00003B0F0BCBB46B246A946A046F0BD22004A
:100AB000EAE71000534698438668B142D5D106262E
:100AC00086570300002E0ADA4A4636E080232F4973
:100AD0000198C850D8E706269E57002E26DB7100E5
:100AE000881980002718B846BF689F604746FF797D
:100AF000DF714746BF797FB29F71002F27DB4746E2
:100B0000BF887F053F15B846E0278044E01A40447F
:100B10000005400D3F02384398808B191C499B000B
:100B20000878E31898710E70A5E703004146002984
:100B300014D1FF318171174981801548017899716D
:100B400015491B1B5B415943090D017093E713487D
:100B5000E2E7062686570300002EC0DA1049114846
:100B6000C91A08394C02640D204398800E48490880
:100B70000143D9807FE700F077FDC046240100D013
:100B800000ED00E0C1010010EC01002000E100E0F8
:100B90006C06002001BDFFFFAAAA000001BD0000F5
:100BA0002602002000F0FFFF00F8FFFF70B50124CF
:100BB0000443EFF30581EFF3108C72B6214A1368FA
:100BC000002BFCD0BFF35F8F1F4B05001F4AED1AAF
:100BD0006D416A43120D1E4D8900AE6852B27658BF
:100BE000A6421CD00621595691421CD012215956BA
:100BF000914222D01E215956914220D02A21595685
:100C00000324914210D0134B19781A708171BFF3ED
:100C10005F8F00220B4B1A608CF3108870BDAB689D
:100C20000D4C5C50EFE700246100091989005B1846
:100C3000FF21997109499980E5E70124F4E702242D
:100C4000F2E7C046240100D0EC010020AAAA00006F
:100C500000ED00E06C060020C101001001BDFFFFA7
:100C6000024B9C466144890001607047400000349B
:100C700070B5114C114DAC420FD2FF262368002BEA
:100C80000CD0FFF755FD01002000FFF7E9FFA6801B
:100C9000BFF35F8F0834AC42F0D370BDFFF748FD5F
:100CA00001002000FFF7DCFF2671BFF35F8F0834DF
:100CB000AC42E3D3F1E7C046800200208802002066
:100CC0000A4B1968EFF3108072B60A68002AFCD04C
:100CD000BFF35F8F1B68BFF35F8F00221A6080F342
:100CE000108840BF002000217047C04668060020E1
:100CF000F0B5DE4657464E464546E0B583B0EFF3C5
:100D0000058203231340B54A99005258009190463A
:100D100001229A409346B24B1A60B24B01935B4654
:100D2000B1484363434608229B5E9946002B3ADA5A
:100D300043469B881BB2002B00DB9DE043469B791A
:100D4000002B00D0E1E0434608241C5F002C20DB90
:100D500043465A6963001B19DB00D3189D68DC68A1
:100D60006B1C00D103E1A048009984466144826A6B
:100D70000B69AE1A9B1A9E4213D35A46036A1A4253
:100D80000FD0994800F0C8FA8C4202DCC7D18542E6
:100D9000C5D940BF03B0F0BCBB46B246A946A04689
:100DA000F0BD0D61EDE7424652695B0092464B444F
:100DB000DB009A4453469E68DF6800F0ADFA8F422C
:100DC000B6DC00D1F8E0002F00DAD9E052465346F5
:100DD00054691B69019A934200D1CCE041465246C6
:100DE0000820085E52880004210010439847040040
:100DF0000D0023002B4300D1C2E0002D00DBDFE01B
:100E000030003900001BA94153469860D960002288
:100E10009A5E002A00DA8BE743465D6953009C180E
:100E2000E4002C19A768E4688C4200DD80E702D159
:100E3000874200D97CE74646328108360DE08C4275
:100E400000D1C6E01E000023F25E002A0ADB530038
:100E50009C18E4002C19A768E4689B18DB00EB18C9
:100E60008C42ECDD53461A804B46338043469B88C8
:100E70001BB2002B00DA61E743461A69EFF31081D9
:100E800072B61368002BFCD0BFF35F8F43469E8879
:100E9000012342465B42938036B21369BFF35F8FF2
:100EA00000221A6081F31088002E00DA46E74346DC
:100EB0005D69083342469C467700BF19FF00EF1971
:100EC000BB68604698460823D15E9246FC680029BC
:100ED00007DA0EE0A24246D018000023C15E0029C6
:100EE00006DB4B005B18DB00EB18DA68A242F1DD91
:100EF000524606800023FE5E3980002EDCDA9046E2
:100F000043469B79002B00D11DE700234246937195
:100F1000434646460821595E08364B1C00D138E747
:100F200047468946556902E006004B1C18D04B0025
:100F30005B18DB00E8180A008C46E95E43881BB2A8
:100F4000002BF1DA01235B42DC178360C4604A4561
:100F500003D031803B8903803A81E1464B1CE6D1C6
:100F6000B8464C46F2E69A684245B5D9C0E7631CDC
:100F700000D0F8E605E7200023699847002825D12E
:100F8000534642461B8813811269EFF3108372B6F1
:100F900011680029FCD0BFF35F8F4246514652884A
:100FA0000A804246494651801269BFF35F8F002193
:100FB000116083F31088BBE6864200D803E7B7E6EA
:100FC000094800F0A9F9001969411DE7656824681E
:100FD0000FE7874200D835E744E7C0464C060020BB
:100FE0003C700540F10C00100040054070B52E4CDF
:100FF0002569002D04D00A212C48FFF731FE70BD71
:101000002B4E0321300000F07DF9E660FFF790FBE6
:10101000284B03229C46D02322701B061B6801210B
:101020006370254B6044A3600F2380002061022081
:10103000638063694942A180198002311986473172
:101040001D83585218315A5275325C3999521832F0
:1010500001319952183201319952183201319952A5
:10106000083518329D520231183299521832013126
:10107000995218320131995218320131995218326D
:10108000013199521832013199520C4B0C49DC60F4
:1010900001303562FFF78AFB01210320FFF774FB63
:1010A000084B1D60A7E7C0464002002068060020EC
:1010B0000040054040000034FFFF10004C060020B7
:1010C000F10C00103860054070B501000469EFF3C1
:1010D000108C72B620680028FCD0BFF35F8F02200E
:1010E0000D5E4C6968004019C0002418002D37DBE4
:1010F000208848800869BFF35F8F002606608CF364
:101100001088E36063880498013320615B040598CC
:101110005B0CA26060611A1C002B1FD093B22804E4
:10112000628018430A69EFF3108C72B61368002BC3
:10113000FCD0BFF35F8F8B8823808D800B69BFF35A
:101140005F8F00221A608CF310880B7801329A406E
:10115000CB6808498C4663441A6070BD0122DDE704
:101160000B69BFF35F8F00221A608CF31088012097
:101170004042F2E73C20000010B543890A14934234
:101180001ADD53009B184269DB00D3180469EFF3A2
:10119000108C72B62268002AFCD0BFF35F8F5A8889
:1011A000090494B2090C8A4208D00369BFF35F8F27
:1011B00000221A608CF31088002010BD80221202D9
:1011C00014435C80012302698371BFF35F8F0021A8
:1011D00011608CF31088044902788C469340C268F1
:1011E000012062441360E8E73C200000F0B5D646D9
:1011F0004F464646C0B504000D0082B0EFF30583AC
:101200000F00002B31D13B4B98461B68834227D0FF
:10121000394B9946DB689A464B4650461E7800F09B
:101220007BF80B00514602000436B60071582000CE
:10123000891A8C4629000026801A99418E4224DCA6
:1012400021D020BF2D4A536ABB422AD3926A012083
:10125000A24213D302B0E0BCBA46B146A846F0BDE4
:1012600043465B688B42D3D1EBE7244900204B6AAD
:10127000AB42EFD38A6A0130A242EBD25B1B5A1E0B
:101280009341D8B2E6E78445DBD900F04DF822005F
:101290002B00121A8B41002B05DA184A536ABB4205
:1012A000D4D20020D6E700230193154B22000093EF
:1012B00048462B00FFF708FF011EEEDD43461C6089
:1012C0005D600E4B5A6ABA4211D39B6AA3420CD39B
:1012D0004846FFF751FF094A0020536ABB42B9D381
:1012E000926A0130A242B5D2C8E7BA42F0D120BF1B
:1012F000EEE7C046380200204002002000400540D2
:10130000C10C001010B5024A0248FFF7EFF910BDFA
:10131000541E0010100600200300416A0A00986A5B
:10132000596A8A42FAD17047034B596A0A00986A8F
:10133000596A9142FAD1704700400540F8B5DE463F
:101340004E4657464546E0B58B4605000A991800BB
:10135000160000F0B3FA0A9B6C001F02324B6419AE
:101360009C46A4006444636881469F4200D967603C
:101370002B1FDBB29846012B30D9C02380229B0162
:10138000E31812011A60294BAD0059599A460029F9
:101390001BD17301E026226853401E408023424641
:1013A0005B01E3181E60012A30D9802380229B0153
:1013B000E31812011A6053464A4667605A51F0BC5E
:1013C000BB46B246A946A046F8BD586900F076FA79
:1013D000013043001B18033BFDD2DAE75B46012BCB
:1013E000CBD1C02303229B01E3181A60023AA36801
:1013F0001A42FCD07301E0262268AD0053401E4023
:1014000080230A4A5B019246E3181E605A4621680F
:10141000514003220A401A6001225B469A40A368A9
:101420001A42FCD0C1E7C0460080004014060020EC
:10143000F0B546464F46D646C0B51F00344B440073
:101440009C462418A4006444636888461600FF2B59
:1014500002D880235B006360031FDBB29A46012B36
:1014600030D9C02380229B01E31812011A60294B56
:1014700085005959994600291BD17301E02622683D
:1014800053401E40802352465B01E3181E60012A30
:1014900030D9802380229B01E31812011A60802337
:1014A0005B0063604B465F51E0BCBA46B146A8465C
:1014B000F0BD586900F002FA013043001B18033BED
:1014C000FDD2DAE74346012BCBD1C02303229B0197
:1014D000E3181A60023AA3681A42FCD07301E026AE
:1014E0002268850053401E4080230A4A5B019146D2
:1014F000E3181E6042462168514003220A401A60E8
:10150000012342469340A2681342FCD0C1E7C04683
:101510000080004014060020014B8000C058704736
:1015200014060020F8B5040021481E0017000D0025
:1015300000F0C4F90100380000F0C0F9069B360441
:101540001B031E432368002B20DB1A4B1A49E318A8
:101550005A1E93418022920194465B421B0B174A0C
:101560001B0363441360164A13601F000A68974305
:10157000FBD1144B2560E2182123A060136023687F
:10158000002BFCDA0823E6601360F8BD3F232268D5
:101590001340AB42D9D1A3681B051B0D8342D4D1A4
:1015A000EE22E368D2021340B342CED1EDE7C0464B
:1015B000001BB7000040FDBF08C0004000E0004035
:1015C00000F00040043000008023024A9B000B43DF
:1015D000D362704700800540142310B501001888BD
:1015E00004331B88984710BD162310B501001888D6
:1015F00002331B88984710BDF8B54746CE4680B5E4
:101600000F1E19D014239946043304000025012627
:1016100098464B461888434621681B88984701C462
:10162000431E9841013540420640AF42F1D130009F
:10163000C0BCB946B046F8BD0126F8E7AA23064A61
:101640001B0113608D235B00D3600449044B1960B8
:101650005368002BFCDA70470040024000B0FA00EB
:10166000006002407047C04610B50148FFF726F8F9
:10167000781E001070B5074D074EB54209D2002400
:10168000013E761BB60808CD984723000134B342CB
:10169000F9D170BD081E0010441E0010054B064A0B
:1016A00006491A60064A074B1A6010000B689843F7
:1016B000FBD1704700E00040BFCDFBFE08C00040FA
:1016C000FE7F3C0000F00040044BDB6C002B03D19C
:1016D0008022034BD2021A607047C04600001150AE
:1016E0004C201150044A054B1A60054A1368DB016F
:1016F0008033FBD17047C046FFFFFF0100F0004080
:1017000008C000404022034B9A675A671A67DA669E
:101710007047C04600F0014010B5FFF715F810BD46
:10172000F8B52749274C284D641AA4082200302C0C
:1017300000D930222800920000F09EF92F2C3BD8CF
:1017400030202F21A700EB195B07204A001BDB0F7D
:10175000091B052916D92600002B01D0EA51661C69
:10176000C01AE3189B004108EB18C900C9181A6099
:101770005A6008338B42FAD1012303421CD09843AC
:101780008419A700EA51631C2F2C15D09B00EA5046
:10179000A31C2E2C10D09B00EA50E31C2D2C0BD048
:1017A0009B00EA50231D2C2C06D09B00EA50631DA1
:1017B0002B2C01D09B00EA50054B9D60F8BDC04624
:1017C00000010010C001001000000020C101001045
:1017D00000ED00E0002310B5294C82B0A367FFF7AD
:1017E0002DFF0122274B1A60636C012BFCD10322D1
:1017F000254B1A60224A936B012BFCD101330093D5
:101800000121224A22480433FFF78CFE05230121DF
:101810000093204A2048FFF785FE00220221042081
:101820001E4BFFF705FE0022012105201C4BFFF790
:10183000FFFD0022002107201A4BFFF7F9FD0022CF
:1018400000210820174BFFF7F3FD8023DB000093F6
:10185000002200210920134BFFF770FD0022104BDE
:1018600000210620FFF7E4FD0420FFF755FE0E4996
:1018700000F024F801000020FFF7A6FE02B010BD22
:10188000008000403CB0004030B00040002F68595C
:1018900000800240008C864700C00240001BB70059
:1018A00040597307006CDC0240420F0001480421DC
:1018B000014B184760020020F9150010114A936F80
:1018C0009B0813D210665166002905D0FFE7FFE799
:1018D000FFE7516F106F704704B5002801D000205A
:1018E000C04300F081FA002104BDC046F0B5146E7B
:1018F000556E576F166FFFF7E5FF1466556657670D
:101900001667F0BD000000D0132370B51D78012DBF
:1019100019D014DD1F48FFF767FE06001E48FFF7C9
:1019200063FE1E4C80223100200000F0A5F8022D3D
:101930002DD01B48FFF750FE1A4B186070BD1A4B94
:10194000164CA364F5E7184B144C23606360A36046
:10195000E36023616361A361E36123626362A36265
:10196000E36223636363A363E36323646364A36445
:10197000E36423656365A365E36523666366A36625
:10198000E36623676367A367E367A364D1E7064B56
:10199000A364CEE75344000053460000080400202F
:1019A0004C33000064060020AD19001007B56046F6
:1019B00001880A0A0230DF2AFAD1C9B2820804D3A8
:1019C000028840880004104300E00068014A50503B
:1019D000039007BD08040020132310B512481C789B
:1019E000FFF702FE0100012C0AD003DD80220F4820
:1019F00000F042F80E48FFF7EFFD0E4B186010BDE7
:101A00000A4C5422200000F037F80B4B6365A365A5
:101A1000E36523666366A366E36623676367A3677C
:101A2000E3672362E361E5E7534600000805002011
:101A30004C330000640600203D1A001007B56046D4
:101A400001880A0A0230DF2AFAD1C9B2820804D317
:101A5000028840880004104300E00068014A5050AA
:101A6000039007BD0805002001480421014B1847D9
:101A700070020020F9150010014B5B681847000048
:101A80007002002010B5002800D110BD00F00AF946
:101A9000FBE7C04610B5094A0300146884B0002C67
:101AA00008D0012200910648524203A9A047012014
:101AB00004B010BD00F042F90020F9E7480600200C
:101AC000851A001000BEFDE77047C04610B5FFF74D
:101AD000F9FFC04670B5FFF7CDFD074D074EB54283
:101AE00009D20024013E761BB60808CD9847230092
:101AF0000134B342F9D170BD441E0010441E0010E1
:101B0000030010B5080011001B68984710BDC046BF
:101B1000F0B5C64600B5437D07000D001600002B4A
:101B200038D0002A2EDD00216A1E90466A5C037DB3
:101B30004C1C00200A2A0CD0A64216D043461B5D3E
:101B400021000D3B5A4253416A5CDBB24C1C0A2A0D
:101B5000F2D1002BF0D1884217DB022110483B68FC
:101B60009847A64207D02000E8E7864203DD311AF5
:101B70003B6828189847AD19013D2B780D3B5A4218
:101B800053413B7580BCB846F0BD091A3B68281824
:101B90009847E2E70368110028009847F2E7C0463B
:101BA000181F0010F0B5DE4657464E464546E0B5D4
:101BB00085B017001C0006000D00FFF7B5FB0023E1
:101BC000314A12184B41802109068B4202D301226F
:101BD0002E4B52422E4908008A4600F00DF9019022
:101BE0006B1C03D1300000F0C7F80500002C26D094
:101BF000284B9846284B1C68002C15D0002F21D16B
:101C0000264F02E02469002C0ED02368002BF9D067
:101C10003B68002B01D09C42F4D120002A00310007
:101C2000C0472469002CF0D1019B002B28D128004B
:101C300005B0F0BCBB46B246A946A046F0BD184B65
:101C40009846D7E7154B994602ABDF1D0A239B4602
:101C500002E02469002CE7D02368002BF9D04B4622
:101C60001B68002B01D0A342F3D12A0031002000D1
:101C7000C0475B460122390020003B70C047E8E7BF
:101C8000504600F0A9F8D2E740420F00FFFFFF7F67
:101C900080020020111B0010400600204406002096
:101CA000011B0010F0B5CE46474680B583B06B46A9
:101CB0000600DD1D2870FFF737FB00231A4A1218B3
:101CC0004B41802109068B4202D30122174B52421D
:101CD00017490800884600F08FF8164B81461C68AB
:101CE000002C14D0144F02E02469002C0FD023687C
:101CF000002BF9D03B68002B01D09C42F4D120008E
:101D000001222900FFF704FF2469002CEFD14B4684
:101D1000002B05D1300003B0C0BCB946B046F0BDC1
:101D2000404600F059F8F5E740420F00FFFFFF7F03
:101D300080020020400600204406002070B5040008
:101D400000F01AF801230100050001222000FFF72E
:101D500029FF084B1C68002C06D06368002B05D0B7
:101D600098472469002CF8D1280070BD2469002C04
:101D7000F3D1F9E74006002010B583070AD003002D
:101D8000032102E001330B4205D01A78002AF9D171
:101D9000181A10BD030019680C4A0D4C8A188A43A2
:101DA00022420FD15968094A04338A188A432242D1
:101DB00008D15968054A04338A188A432242F1D06F
:101DC00000E001331A78002AFBD1E1E7FFFEFEFEB6
:101DD000808080800000000001B40248844601BC7D
:101DE000604700BFA901002001B40248844601BC3D
:101DF000604700BFD101002001B40248844601BC05
:101E0000604700BF750100209D160010C916001024
:101E1000AD180010691A001009190010D919001026
:101E2000D5170010E516001005170010191700103F
:101E3000710C001021170010ED0F00106516001036
:041E40006507001022
:101E44000A2A2A2A2050414E4943202A2A2A0A00D3
:101E5400486172647761726520616C61726D2025DE
:101E64006420616C726561647920636C61696D657D
:101E740064000000486172642061737365727400C9
:101E840052656C6561736500626F6F74325F77329F
:101E94003571303830000000322E332E300000000F
:101EA4007069636F00000000636F756E7465725F24
:101EB4006C6564004A756C20313220323032360051
:101EC40006005250D3F07542841E00100600525092
:101ED400E182887F8C1E001006005250ABB3605321
:101EE4009C1E001006005250BBFF3CB6A41E0010FE
:101EF40006005250861C0302AC1E0010060052500D
:101F04005422A29DB81E001005005250DE65F468EC
:081F1400002100100D0A00007D
:101F1C00C41E0010D01E0010DC1E0010E81E0010A5
:0C1F2C00F41E0010001F00100C1F00101D
:101F380003000068EFF3108C72B60268002AFCD028
:101F4800BFF35F8F04229A56002A04DB002900D0D1
:101F58000A60002004E0D0220120120612681A71DB
:101F68001B68BFF35F8F00221A608CF310887047DC
:101F7800F0B54F46D6464646C0B51F00D0231B06CF
:101F88001B6804009A460023904699460CE0226894
:101F9800BFF35F8F4946116083F3108840463900CC
:101FA80000F052F800281AD12668EFF3108372B6B1
:101FB8003568002DFCD0BFF35F8F25797F2DE6D9DA
:101FC800524622712268BFF35F8F0021116083F3AC
:101FD80010880120E0BCBA46B146A846F0BD0020F2
:101FE800F8E7C04670B582B001A9040016001D00CC
:101FF800FFF79EFF002807D1D0231B0601991B7805
:1020080049B25BB2994201D102B070BD32002B00D7
:102018002000FFF7ADFFF7E70268EFF3108172B613
:102028001368002BFCD0BFF35F8FFF230371036895
:10203800BFF35F8F00221A6081F3108840BF70479A
:102048007047C0460000000001B40248844601BC45
:10205800604700BFED1100101000000000000000F4
:102068000000010000000000000000000000020065
:102078000000000000000000000003000000000055
:10208800000000000000FF000000000001B54868E3
:1020980001318E460047704609380149884701BD1D
:1020A800AD0B001000000000FFFFFFFFFFFFFF7FE8
:1020B8000000000000000000000000000000000018
:1020C800000000008802002000000000000000005E
:1020D800503300004C3300005433000052330000EA
:1020E8004D5300004D4300005334000043340000BA
:0820F8000000000000000000E0
:04000005100001E9FD
:00000001FF
